:100000000C9434000C9451000C9451000C94510049
:100010000C9451000C9451000C9451000C9451001C
:100020000C9451000C9451000C9451000C9451000C
:100030000C9451000C9451000C9453000C945100FA
:100040000C9451000C9451000C9451000C94A40198
:100050000C9451000C9451000C9451000C945100DC
:100060000C9451000C94510011241FBECFEFD8E026
:10007000DEBFCDBF11E0A0E0B1E0EAE4FBE002C0EA
:1000800005900D92A032B107D9F715E0A0E2B1E0DA
:1000900001C01D92A43AB107E1F70E9486020C94B8
:1000A000A3050C9400001F920F920FB60F9211241B
:1000B0002F933F934F935F936F937F938F939F9370
:1000C000AF93BF93EF93FF930E947102809320013F
:1000D000909321019F938F938BE191E09F938F9356
:1000E0000E9478010F900F900F900F90FF91EF9169
:1000F000BF91AF919F918F917F916F915F914F9140
:100100003F912F910F900FBE0F901F9018950F9356
:100110001F938B019C01005B1440210931090135BB
:100120001D4B21403105B8F49B01AC0184E0220F46
:10013000331F441F551F8A95D1F760E074E284EFA6
:1001400090E00E94A602215031093093C50020930F
:10015000C40080E001C081E01F910F9108958130BB
:1001600061F090F08230A1F48091C20080628093AF
:10017000C2008091C2008F7E03C08091C200806364
:100180008093C20080E008958091C2008F7CF8CFF8
:1001900081E00895813031F0823059F48091C200BD
:1001A000886003C08091C200877F8093C20080E096
:1001B000089581E00895863079F030F4853009F5AE
:1001C0008091C200897F19C0873079F08830C9F4E6
:1001D0008091C200866011C08091C20082608093CD
:1001E000C2008091C2008B7F08C08091C2008460F1
:1001F0008093C2008091C2008D7F8093C20080E016
:10020000089581E0089586E08093C2001092C500B1
:1002100087E68093C40008958091C00087FF03C0E3
:100220008091C600089580E008959091C00095FDEA
:100230008093C6000895E1ECF0E0808180618083C6
:100240000895E1ECF0E080818F7E80830895E1ECF9
:10025000F0E08081806880830895E1ECF0E08081A7
:100260008F7780830895E1ECF0E08081886080835F
:100270000895E1ECF0E08081877F80830895E1ECD0
:10028000F0E08081806480830895E1ECF0E080817B
:100290008F7B80830895E1ECF0E080818062808331
:1002A0000895E1ECF0E080818F7D80830895CF9305
:1002B000DF9300D000D0CDB7DEB769837A838B831C
:1002C0009C830E94030169817A818B819C810E94B9
:1002D00087000E94330184E291E090932301809390
:1002E00022010F900F900F900F90DF91CF91089502
:1002F000CF93DF93CDB7DEB7FE0135964191519193
:100300009F0160E870E084E291E00E94C8020E94D0
:100310004B01DF91CF910895E0912201F0912301EB
:100320008081882339F03196F0932301E0932201F4
:100330000C9415011092240184E291E09093230122
:10034000809322010C9451011F920F920FB60F92CD
:1003500011242F933F934F935F936F937F938F93CA
:100360009F93AF93BF93EF93FF930E948C01FF91F4
:10037000EF91BF91AF919F918F917F916F915F911D
:100380004F913F912F910F900FBE0F901F90189596
:1003900082309105B1F028F4009751F0019759F09F
:1003A000089584309105C9F078F00597E1F008953B
:1003B00084B58C7F0EC084B58E7F84BD84B5826089
:1003C00008C084B5836005C084B58D7F84BD84B5C5
:1003D000816084BD85B5877F0BC084B58D7F84BD6A
:1003E00084B5816002C084B5836084BD85B58860B2
:1003F00085BD089585B5887F85BD089580349105B4
:10040000F9F058F481309105A9F0089739F585B5D0
:100410008A7F85BD85B5826018C0811521E092076D
:10042000B9F081159440D1F485B58D7F85BD85B532
:1004300085600BC085B5897F85BD85B5816005C0A8
:1004400085B58B7F85BD85B5836085BD80E00895CA
:1004500085B58C7F85BD85B58460F7CF0E94FA0194
:1004600081E0089587BD089588BD0895EEE6F0E027
:100470008081826080830895EEE6F0E080818D7F48
:1004800080830895EEE6F0E08081846080830895A3
:10049000EEE6F0E080818B7F80830895EEE6F0E069
:1004A0008081816080830895EEE6F0E080818E7F18
:1004B00080830895ECE7F0E090818770892B80833A
:1004C0000895EAE7F0E0808187608083ACE7B0E0E0
:1004D0008C9180648C9380818068808380E00C9410
:1004E0005A0280917A00806480937A0080917A0029
:1004F00086FF02C00000FACF209178008091790039
:1005000090E0982F8827820F911D089581E090E058
:100510000E94C80180E490E00E94FE0189EF0E94E1
:1005200032020E94360260E071EE80E090E00E94AC
:1005300057010E946102789480E091E09F938F932D
:100540000E9478010F900F900000FECFA1E21A2EBA
:10055000AA1BBB1BFD010DC0AA1FBB1FEE1FFF1F67
:10056000A217B307E407F50720F0A21BB30BE40BB7
:10057000F50B661F771F881F991F1A9469F76095FE
:100580007095809590959B01AC01BD01CF010895B8
:10059000AEE0B0E0EEECF2E00C947A058C01CA011A
:1005A00046E04C831A83098377FF02C060E070E85D
:1005B000615071097E836D83A901BC01CE01019652
:1005C0000E94F4024D815E8157FD0AC02F8138855B
:1005D000421753070CF49A01F801E20FF31F10823F
:1005E0002E96E4E00C949605ACE0B0E0EAEFF2E081
:1005F0000C946C057C016B018A01FC011782168248
:10060000838181FFBDC1CE0101964C01F701938129
:10061000F60193FD859193FF81916F01882309F481
:10062000ABC1853239F493FD859193FF81916F01C0
:10063000853229F4B70190E00E94DC04E7CF512C09
:10064000312C20E02032A0F48B3269F030F480327B
:1006500059F0833269F420612CC08D3239F0803337
:1006600039F4216026C02260246023C0286021C0A4
:1006700027FD27C030ED380F3A3078F426FF06C04A
:10068000FAE05F9E300D1124532E13C08AE0389E8D
:10069000300D1124332E20620CC08E3221F426FD41
:1006A0006BC1206406C08C3611F4206802C0883605
:1006B00041F4F60193FD859193FF81916F018111C2
:1006C000C1CF982F9F7D9554933028F40C5F1F4F16
:1006D000FFE3F9830DC0833631F0833771F0833542
:1006E00009F05BC022C0F801808189830E5F1F4F33
:1006F00044244394512C540115C03801F2E06F0E8C
:10070000711CF801A080B18026FF03C0652D70E048
:1007100002C06FEF7FEFC5012C870E94D1042C012E
:1007200083012C852F77222E17C03801F2E06F0E3F
:10073000711CF801A080B18026FF03C0652D70E018
:1007400002C06FEF7FEFC5012C870E94C6042C0109
:100750002C852068222E830123FC1BC0832D90E072
:1007600048165906B0F4B70180E290E00E94DC041C
:100770003A94F4CFF50127FC859127FE81915F0122
:10078000B70190E00E94DC0431103A94F1E04F1A76
:1007900051084114510471F7E5C0843611F08936CF
:1007A00039F5F80127FF07C060817181828193814B
:1007B0000C5F1F4F08C060817181882777FD80958D
:1007C000982F0E5F1F4F2F76B22E97FF09C090957E
:1007D0008095709561957F4F8F4F9F4F2068B22E07
:1007E0002AE030E0A4010E940E05A82EA81844C0FB
:1007F000853729F42F7EB22E2AE030E025C0F22F73
:10080000F97FBF2E8F36C1F018F4883579F0B4C067
:10081000803719F0883721F0AFC02F2F2061B22E1A
:10082000B4FE0DC08B2D8460B82E09C024FF0AC011
:100830009F2F9660B92E06C028E030E005C020E169
:1008400030E002C020E132E0F801B7FE07C060816D
:100850007181828193810C5F1F4F06C0608171811D
:1008600080E090E00E5F1F4FA4010E940E05A82EAD
:10087000A818FB2DFF77BF2EB6FE0BC02B2D2E7FA9
:10088000A51450F4B4FE0AC0B2FC08C02B2D2E7E75
:1008900005C07A2C2B2D03C07A2C01C0752C24FFA7
:1008A0000DC0FE01EA0DF11D8081803311F4297E17
:1008B00009C022FF06C07394739404C0822F867807
:1008C00009F0739423FD13C020FF06C05A2C731443
:1008D00018F4530C5718732C731468F4B70180E2A2
:1008E00090E02C870E94DC0473942C85F5CF731460
:1008F00010F4371801C0312C24FF12C0B70180E377
:1009000090E02C870E94DC042C8522FF17C021FF79
:1009100003C088E590E002C088E790E0B7010CC012
:10092000822F867859F021FD02C080E201C08BE25F
:1009300027FD8DE2B70190E00E94DC04A51438F495
:10094000B70180E390E00E94DC045A94F7CFAA94A8
:10095000F401EA0DF11D8081B70190E00E94DC04F2
:10096000A110F5CF332009F451CEB70180E290E019
:100970000E94DC043A94F6CFF7018681978102C089
:100980008FEF9FEF2C96E2E10C948805FC01059017
:10099000615070400110D8F7809590958E0F9F1F81
:1009A0000895FC016150704001900110D8F78095C6
:1009B00090958E0F9F1F08950F931F93CF93DF93F2
:1009C000182F092FEB018B8181FD03C08FEF9FEF63
:1009D00020C082FF10C04E815F812C813D81421773
:1009E00053077CF4E881F9819F012F5F3F4F3983E2
:1009F0002883108306C0E885F985812F0995892B06
:100A000029F72E813F812F5F3F4F3F832E83812F18
:100A1000902FDF91CF911F910F910895FA01AA278E
:100A2000283051F1203181F1E8946F936E7F6E5F31
:100A30007F4F8F4F9F4FAF4FB1E03ED0B4E03CD0DF
:100A4000670F781F891F9A1FA11D680F791F8A1FC2
:100A5000911DA11D6A0F711D811D911DA11D20D029
:100A600009F468943F912AE0269F11243019305DE3
:100A70003193DEF6CF010895462F4770405D4193D4
:100A8000B3E00FD0C9F7F6CF462F4F70405D4A3321
:100A900018F0495D31FD4052419302D0A9F7EACFE9
:100AA000B4E0A6959795879577956795BA95C9F718
:100AB00000976105710508959B01AC010A2E06940B
:100AC0005795479537952795BA95C9F7620F731FC4
:100AD000841F951FA01D08952F923F924F925F9201
:100AE0006F927F928F929F92AF92BF92CF92DF923E
:100AF000EF92FF920F931F93CF93DF93CDB7DEB7A3
:100B0000CA1BDB0B0FB6F894DEBF0FBECDBF099436
:100B10002A88398848885F846E847D848C849B848D
:100B2000AA84B984C884DF80EE80FD800C811B819B
:100B3000AA81B981CE0FD11D0FB6F894DEBF0FBECA
:0A0B4000CDBFED010895F894FFCF3A
:100B4A00496E6974696C697A6174696F6E20666945
:100B5A006E69736865642E200D0A0025640D0A000B
:00000001FF
