:100000000C94B5000C94D2000C94D2000C94D20045
:100010000C94D2000C94D2000C94D2000C94D20018
:100020000C94D2000C94D2000C94D2000C94D20008
:100030000C94D2000C94D2000C944F010C94D2007A
:100040000C94D2000C94D2000C94D2000C94D200E8
:100050000C94D2000C94D2000C94D2000C94D200D8
:100060000C94D2000C94D2006E616E00696E660032
:1000700000407A10F35A00A0724E18090010A5D45F
:10008000E80000E87648170000E40B54020000CABC
:100090009A3B000000E1F505000080969800000002
:1000A00040420F000000A086010000001027000061
:1000B0000000E803000000006400000000000A00E7
:1000C000000000000100000000002C76D888DC67EA
:1000D0004F0823DFC1DFAE59E1B1B796E5E3E45342
:1000E000C63AE651997696E8E6C28426EB898C9B5F
:1000F00062ED407C6FFCEFBC9C9F40F2BAA56FA5FF
:10010000F490055A2AF75C936B6CF9676DC11BFC80
:10011000E0E40D47FEF520E6B500D0ED902E03009B
:10012000943577050080841E080000204E0A0000E8
:1001300000C80C333333330F986E12831141EF8DA7
:100140002114893BE65516CFFEE6DB18D1844B38E7
:100150001BF77C1D901DA4BBE424203284725E2218
:100160008100C9F124ECA1E53D2711241FBECFEF8A
:10017000D8E0DEBFCDBF11E0A0E0B1E0E4E3F6E1FE
:1001800002C005900D92AE32B107D9F716E0AEE28B
:10019000B1E001C01D92A537B107E1F70E94D4007C
:1001A0000C94180B0C94000081E090E00E944B032B
:1001B00080E091E00E948E0389EF0E94D1030E94AB
:1001C000D50360E071EE80E090E00E94B5020E94ED
:1001D0000004789480E091E09F938F930E94C8027E
:1001E0000F900F900F2EFBE1AF2EF1E0BF2EF02D00
:1001F0000F2EF1E7EF2EF6E0FF2EF02D0EE111E0CD
:100200000F2EF6E2CF2EF1E0DF2EF02D809134019B
:10021000803108F442C0F8944091340150E0440F1A
:10022000551F440F551F65E372E085E396E00E9479
:10023000480ABF92AF920E94C802C5E3D6E00F9071
:100240000F90888199812A813B8124963F932F9337
:100250009F938F931F930F930E94C8020F900F904C
:100260000F900F900F900F90CE15DF0551F7F7010B
:1002700083818F9382818F9381818F9380818F93EC
:10028000DF92CF920E94C8021092340178940F90AE
:100290000F900F900F900F900F900000B7CF1F920C
:1002A0000F920FB60F9211242F933F934F935F93AA
:1002B0006F937F938F939F93AF93BF93CF93DF936E
:1002C000EF93FF930E9411049093330180933201C6
:1002D000BC0180E090E00E94740820E030E040E83B
:1002E0005AE30E94020920E030E040EA50E40E9414
:1002F000020920E030E040E250E40E940F08262F7F
:10030000372F462F572F682F792F40932E01509368
:100310002F016093300170933101E0913401E0319D
:1003200080F441E04E0F40933401F0E0EE0FFF1FE8
:10033000EE0FFF1FEB5CFD4F422F40835183628322
:1003400073839F938F933F932F9384E291E09F93C6
:100350008F930E94C8020F900F900F900F900F90F4
:100360000F90FF91EF91DF91CF91BF91AF919F914E
:100370008F917F916F915F914F913F912F910F904E
:100380000FBE0F901F9018950F931F938B019C0128
:10039000005B14402109310901351D4B2140310515
:1003A00010F5DC01CB01880F991FAA1FBB1F880F16
:1003B000991FAA1FBB1F9C01AD01220F331F441FB1
:1003C000551F220F331F441F551F60E074E284EF56
:1003D00090E00E94B607215031093093C500209368
:1003E000C40080E001C081E01F910F910895813029
:1003F00069F098F08230C1F4E2ECF0E08081806234
:10040000808380818F7E808380E00895E2ECF0E03D
:1004100080818063808380E00895E2ECF0E0808159
:100420008F7C808380E0089581E00895813019F009
:10043000823041F00EC0E2ECF0E08081877F808363
:1004400080E00895E2ECF0E080818860808380E0C5
:10045000089581E00895863081F018F4853031F0F8
:1004600027C08730A1F08830E1F022C0E2ECF0E054
:100470008081897F808380E00895E2ECF0E08081D4
:100480008260808380818B7F808380E00895E2ECAE
:10049000F0E080818460808380818D7F808380E034
:1004A0000895E2ECF0E080818660808380E008952A
:1004B00081E0089586E08093C2001092C50087E62F
:1004C0008093C40008958091C00088231CF480911B
:1004D000C600089580E008959091C00095FD06C083
:1004E000E0ECF0E00000908195FFFCCF8093C60027
:1004F0000895E1ECF0E08081806180830895E1EC73
:10050000F0E080818F7E80830895E1ECF0E08081CF
:10051000806880830895E1ECF0E080818F778083AC
:100520000895E1ECF0E08081886080830895E1EC3B
:10053000F0E08081877F80830895E1ECF0E08081A6
:10054000806480830895E1ECF0E080818F7B80837C
:100550000895E1ECF0E08081806280830895E1EC11
:10056000F0E080818F7D80830895CF92DF92EF92BB
:10057000FF926B017C010E945A02C701B6010E94E2
:10058000C4010E949102FF90EF90DF90CF900895F8
:10059000EF92FF920F931F93CF93DF93CDB7DEB708
:1005A000FE013996419151919F0160E071E085E330
:1005B00091E00E948E0A882381F005E311E08150CA
:1005C00090E09C012A5C3E4F7901F80181918F01F6
:1005D0000E946C020E151F05C1F7DF91CF911F918C
:1005E0000F91FF90EF9008950E946C020895FC0116
:1005F0002081318184819581AC014F5F5F4F5583AC
:100600004483D901A80FB91F6C9380859185019609
:100610009187808784819581628173810E94A2077E
:10062000958384830895CF93FC012085318521151E
:100630003105C9F06081718186819781AC014F5F7E
:100640005F4F57834683DB01A80FB91FCC91215020
:1006500031093187208762817381CA010E94A20714
:100660009783868301C0C0E08C2FCF910895FC0151
:100670001582148217821682118610860190F081ED
:10068000E02D10820895FC017183608353834283BF
:100690000E943703089582309105F1F028F4009705
:1006A00051F0019779F008958430910531F1D8F037
:1006B000059769F1089584B58C7F84BD85B5877FE2
:1006C00085BD089584B58E7F84BD84B5826084BD68
:1006D00085B5877F85BD089584B5836084BD85B564
:1006E000877F85BD089584B58D7F84BD84B5816085
:1006F00084BD85B5877F85BD089584B58D7F84BD14
:1007000084B5816084BD85B5886085BD089584B554
:10071000836084BD85B5886085BD0895803491056A
:10072000F9F030F48130910559F0089789F030C024
:10073000811521E09207E1F08115944009F128C06C
:1007400085B5897F85BD85B5816085BD80E00895CB
:1007500085B58A7F85BD85B5826085BD80E00895B9
:1007600085B58B7F85BD85B5836085BD80E00895A7
:1007700085B58C7F85BD85B5846085BD80E0089595
:1007800085B58D7F85BD85B5856085BD80E0089583
:1007900085B5887F85BD81E0089585B5887F85BD55
:1007A000089587BD089588BD0895EEE6F0E0808144
:1007B000826080830895EEE6F0E080818D7F808303
:1007C0000895EEE6F0E08081846080830895EEE68F
:1007D000F0E080818B7F80830895EEE6F0E08081F9
:1007E000816080830895EEE6F0E080818E7F8083D3
:1007F0000895ECE7F0E090818770982B908308953E
:10080000EAE7F0E0808187608083ACE7B0E08C911C
:1008100080648C9380818068808380E00E94F903EB
:100820000895EAE7F0E0808180648083808186FF1C
:1008300004C00000808186FDFCCF2091780080916B
:10084000790090E0982F8827820F911D0895A3E1E9
:10085000B0E0EDE2F4E00C94D8077C011B016A01E2
:10086000FC0117821682838181FF66C3BE016F5F20
:100870007F4F4B01F7019381F10193FD859193FF28
:1008800081911F01882309F453C3853239F493FD04
:10089000859193FF81911F01853239F4B70190E072
:1008A0000E945C0A56016501E5CF10E0512C20E062
:1008B0002032A0F48B3269F030F4803259F0833268
:1008C00069F420612CC08D3239F0803339F4216015
:1008D00026C02260246023C0286021C027FD27C0D5
:1008E00030ED380F3A3078F426FF06C0FAE01F9F4B
:1008F000300D1124132F13C06AE0569E300D1124C1
:10090000532E20620CC08E3221F426FD11C32064C8
:1009100006C08C3611F4206802C0883641F4F1011B
:1009200093FD859193FF81911F018111C1CF9BEBB5
:10093000980F933018F42061805E06C09BE9980FF1
:10094000933008F0AAC12F7E26FF16E02F73722E77
:10095000853621F4F22FF0647F2E08C0863621F40C
:10096000622F6068762E02C01111115077FE07C009
:100970001C3348F444244394410E27E00BC0183044
:1009800030F4212F06C027E04CE3442E03C027E0BB
:1009900017E0412C560174E0A70EB11CF6016081EE
:1009A000718182819381042DA4010E9465096C01EB
:1009B000098100FF02C003FF06C071FC07C072FC82
:1009C00008C0612C08C03DE2632E05C02BE2622EF8
:1009D00002C090E2692E802F8C7099F1662011F090
:1009E00084E001C083E0851510F0512C0BC0581A2B
:1009F00073FC08C0B70180E290E00E945C0A5A9440
:100A0000C9F7F3CF662029F0B701862D90E00E9448
:100A10005C0A03FD03C00CE610E002C008E610E02B
:100A2000F72DF0717F2EF8018491882309F476C2A6
:100A300071108052B70190E00E945C0A0F5F1F4F57
:100A4000F2CF77FE0FC04C0C04FF04C08A818133C3
:100A500009F44A94141474F5F8E0F41578F588E074
:100A6000482E2CC076FC2AC0812F90E08C159D0565
:100A70009CF06CEFC6166FEFD60674F0772D706899
:100A8000772E0AC0E2E0F0E0EC0FFD1FE10FF11D50
:100A90008081803319F411501111F4CF77FE0EC00C
:100AA00044244394410E812F90E0C816D9062CF4BB
:100AB0001C1904C04424439401C010E077FE07C011
:100AC0001C141D043CF496012F5F3F4F05C025E028
:100AD00030E002C021E030E0662011F02F5F3F4F90
:100AE000112331F0412F50E04F5F5F4F240F351F2E
:100AF000452D50E02417350714F4521A01C0512C2B
:100B0000872D897049F4552039F0B70180E290E0D3
:100B10000E945C0A5A94F7CF662029F0B701862D0F
:100B200090E00E945C0A73FC09C0552039F0B701BF
:100B300080E390E00E945C0A5A94F7CF77FE5FC092
:100B40009C2D8D2DD7FE02C090E080E0692E782E7E
:100B500040E050E0C601841991099D878C87960179
:100B600026193709280D391D812F90E0EE27FF2720
:100B7000E81BF90BFF87EE87FFEF6F167F0669F41E
:100B8000B7018EE290E02B8B3A8B488B598B0E94F9
:100B90005C0A598948893A892B89C614D70454F0CC
:100BA0006C857D85661577052CF4F901E40FF51F3A
:100BB000818101C080E371E0671A71084F5F5F4F68
:100BC000EE85FF856E167F066CF0B70190E02B8BEB
:100BD0003A8B488B598B0E945C0A2B893A89488949
:100BE0005989CACF6C147D0439F49A81963318F46C
:100BF000953311F404FF81E3B70190E04BC08A8183
:100C0000813309F00F7EB70190E00E945C0A111158
:100C100005C074FE18C085E490E017C0B7018EE2ED
:100C200090E00E945C0A82E066246394680EF401FE
:100C3000E80FF11D8081B70190E00E945C0A11501D
:100C400041F3862DF1CF85E690E0B7010E945C0A62
:100C5000D7FC05C0C114D10439F404FF05C0D194F8
:100C6000C194D1088DE201C08BE2B70190E00E94EF
:100C70005C0A80E36AE0C616D1042CF08F5FFAE0CC
:100C8000CF1AD108F7CFB70190E00E945C0AB701F4
:100C9000C601C0960E945C0A41C1833631F0833799
:100CA00079F0833509F058C021C0560172E0A70ED3
:100CB000B11CF6018081898301E010E0640114C059
:100CC0005601F2E0AF0EB11CF601C080D18026FFC4
:100CD00003C0612F70E002C06FEF7FEFC6012B8B66
:100CE0000E94510A8C012B892F7715C05601F2E022
:100CF000AF0EB11CF601C080D18026FF03C0612F6A
:100D000070E002C06FEF7FEFC6012B8B0E943D0A9F
:100D10008C012B892068722E23FD1AC0852D90E04E
:100D200008171907A8F4B70180E290E00E945C0A56
:100D30005A94F4CFF60177FC859177FE81916F018B
:100D4000B70190E00E945C0A51105A9401501109B9
:100D50000115110579F7E2C0843611F0893651F595
:100D6000560127FF09C0F4E0AF0EB11CF601608107
:100D70007181828193810AC0F2E0AF0EB11CF6014D
:100D800060817181882777FD8095982F022F0F76DB
:100D900097FF08C090958095709561957F4F8F4F14
:100DA0009F4F00682AE030E0A4010E94BA0AC82ED2
:100DB000C8183EC0022F853721F40F7E2AE030E0AC
:100DC0001DC0097F8F3691F018F4883559F0B0C0F6
:100DD000803719F0883711F0ABC0006104FF09C0FB
:100DE000046007C024FF08C0066006C028E030E0A9
:100DF00005C020E130E002C020E132E0560107FFEB
:100E000009C0F4E0AF0EB11CF601608171818281EE
:100E1000938108C0F2E0AF0EB11CF60160817181D0
:100E200080E090E0A4010E94BA0AC82EC8180F778B
:100E300006FF0BC0202F2E7FC11650F404FF0AC0FE
:100E400002FD08C0202F2E7E05C0DC2C202F03C001
:100E5000DC2C01C0D12E24FF0DC0FE01EC0DF11DD4
:100E60008081803311F4297E09C022FF06C0D3940B
:100E7000D39404C0822F867809F0D39423FD13C045
:100E800020FF06C01C2DD51418F4150D1D19D52CE6
:100E9000D51468F4B70180E290E02B8B0E945C0AC5
:100EA000D3942B89F5CFD51410F45D1801C0512CC3
:100EB00024FF12C0B70180E390E02B8B0E945C0AF4
:100EC0002B8922FF17C021FF03C088E590E002C0F4
:100ED00088E790E0B7010CC0822F867859F021FD99
:100EE00002C080E201C08BE227FD8DE2B70190E0F5
:100EF0000E945C0AC11638F4B70180E390E00E94BA
:100F00005C0A1150F7CFCA94F401EC0DF11D8081F9
:100F1000B70190E00E945C0AC110F5CF552009F49A
:100F2000C2CCB70180E290E00E945C0A5A94F6CFEE
:100F3000F7018681978102C08FEF9FEF6396E2E110
:100F40000C94F407AA1BBB1B51E107C0AA1FBB1FCF
:100F5000A617B70710F0A61BB70B881F991F5A9545
:100F6000A9F780959095BC01CD010895A1E21A2EB4
:100F7000AA1BBB1BFD010DC0AA1FBB1FEE1FFF1F3D
:100F8000A217B307E407F50720F0A21BB30BE40B8D
:100F9000F50B661F771F881F991F1A9469F76095D4
:100FA0007095809590959B01AC01BD01CF0108958E
:100FB0002F923F924F925F926F927F928F929F9269
:100FC000AF92BF92CF92DF92EF92FF920F931F9357
:100FD000CF93DF93CDB7DEB7CA1BDB0B0FB6F89408
:100FE000DEBF0FBECDBF09942A88398848885F8448
:100FF0006E847D848C849B84AA84B984C884DF80B9
:10100000EE80FD800C811B81AA81B981CE0FD11D9C
:101010000FB6F894DEBF0FBECDBFED010895505856
:10102000BB27AA270ED0B4C0A5D030F0AAD020F09C
:1010300031F49F3F11F41EF49AC00EF4E095E7FBE3
:1010400090C0E92FB6D080F3BA1762077307840700
:10105000950718F071F49EF5CEC00EF4E0950B2EB6
:10106000BA2FA02D0B01B90190010C01CA01A001FA
:101070001124FF27591B99F0593F50F4503E68F155
:101080001A16F040A22F232F342F4427585FF3CF96
:10109000469537952795A795F0405395C9F77EF467
:1010A0001F16BA0B620B730B840BBAF09150A1F0B0
:1010B000FF0FBB1F661F771F881FC2F70EC0BA0F36
:1010C000621F731F841F48F4879577956795B795BE
:1010D000F7959E3F08F0B3CF9395880F08F09927B6
:1010E000EE0F979587950895E89409C097FB3EF415
:1010F00090958095709561957F4F8F4F9F4F992365
:10110000A9F0F92F96E9BB279395F69587957795E2
:101110006795B795F111F8CFFAF4BB0F11F460FFA2
:101120001BC06F5F7F4F8F4F9F4F16C0882311F0FA
:1011300096E911C0772321F09EE8872F762F05C00E
:10114000662371F096E8862F70E060E02AF09A95A9
:10115000660F771F881FDAF7880F9695879597F99E
:10116000089597F99F6780E870E060E008959FEF29
:1011700080EC089500240A9416161706180609062E
:10118000089500240A9412161306140605060895FD
:10119000092E0394000C11F4882352F0BB0F40F485
:1011A000BF2B11F460FF04C06F5F7F4F8F4F9F4FC5
:1011B000089557FD9058440F551F59F05F3F71F047
:1011C0004795880F97FB991F61F09F3F79F08795AE
:1011D0000895121613061406551FF2CF4695F1DF37
:1011E00008C0161617061806991FF1CF86957105C7
:1011F000610508940895E894BB2766277727CB01FB
:1012000097F908950BD0C4CFB5DF28F0BADF18F0F6
:10121000952309F0A6CFABCF1124EECFCADFA0F300
:10122000959FD1F3950F50E0551F629FF001729F7B
:10123000BB27F00DB11D639FAA27F00DB11DAA1F9A
:10124000649F6627B00DA11D661F829F2227B00DE7
:10125000A11D621F739FB00DA11D621F839FA00D72
:10126000611D221F749F3327A00D611D231F849FC2
:10127000600D211D822F762F6A2F11249F57504019
:101280008AF0E1F088234AF0EE0FFF1FBB1F661FB4
:10129000771F881F91505040A9F79E3F510570F06D
:1012A00060CFAACF5F3FECF3983EDCF3869577954D
:1012B0006795B795F795E7959F5FC1F7FE2B880F68
:1012C000911D9695879597F90895283008F027E0A5
:1012D0003327DA01990F311D87FD91600096610572
:1012E000710539F432602E5F3D9330E32A95E1F7C2
:1012F00008959F3F30F080387105610509F03C5F2B
:101300003C5F3D93913008F08068911DDF93CF934F
:101310001F930F93FF92EF92192F987F9695E92FC5
:1013200096959695E90FFF27E653FF4F99273327A8
:10133000EE24FF24A701E70105900894079428F400
:10134000360FE71EF81E491F511D660F771F881FB5
:10135000991F0694A1F70590079428F4E70EF81E4C
:10136000491F561FC11D770F881F991F661F0694BE
:10137000A1F70590079428F4F80E491F561FC71FC0
:10138000D11D880F991F661F771F0694A1F705903E
:10139000079420F4490F561FC71FD81F990F661FC7
:1013A000771F881F0694A9F784911095177041F054
:1013B000D695C79557954795F794E7941A95C1F731
:1013C000E0E7F0E06894159015913591659195915D
:1013D00005907FE27395E118F10A430B560BC90B98
:1013E000D009C0F7E10CF11E431F561FC91FD01DC5
:1013F0007EF4703311F48A95E6CFE894015030F012
:10140000080F0AF40027021708F4202F2395022F53
:101410007A3328F079E37D932A95E9F710C07D931C
:101420002A9589F606949795679537951795179499
:10143000E118F10A430B560BC90BD00998F023951C
:101440007E9173957A3308F070E37C932013B8F79C
:101450007E9170617D9330F0839571E37D9370E3AD
:101460002A95E1F71124EF90FF900F911F91CF91F2
:10147000DF91992787FD90950895FC0105906150B3
:1014800070400110D8F7809590958E0F9F1F08959A
:10149000FB01DC0102C001900D9241505040D8F791
:1014A0000895FC016150704001900110D8F78095BB
:1014B00090958E0F9F1F08950F931F93CF93DF93E7
:1014C000182F092FEB018B8181FD03C08FEF9FEF58
:1014D00020C082FF10C04E815F812C813D81421768
:1014E00053077CF4E881F9819F012F5F3F4F3983D7
:1014F0002883108306C0E885F985812F0995892BFB
:1015000029F72E813F812F5F3F4F3F832E83812F0D
:10151000902FDF91CF911F910F910895AEE0B0E031
:10152000E4E9FAE00C94E6078C01CA0146E04C833A
:101530001A83098377FF02C060E070E86150710987
:101540007E836D83A901BC01CE0101960E94270410
:101550004D815E8157FD0AC02F81388542175307A0
:101560000CF49A01F801E20FF31F10822E96E4E0CA
:101570000C940208FA01AA27283051F1203181F198
:10158000E8946F936E7F6E5F7F4F8F4F9F4FAF4F8B
:10159000B1E03ED0B4E03CD0670F781F891F9A1F9E
:1015A000A11D680F791F8A1F911DA11D6A0F711D52
:1015B000811D911DA11D20D009F468943F912AE05E
:1015C000269F11243019305D3193DEF6CF01089546
:1015D000462F4770405D4193B3E00FD0C9F7F6CF77
:1015E000462F4F70405D4A3318F0495D31FD40523F
:1015F000419302D0A9F7EACFB4E0A69597958795D5
:1016000077956795BA95C9F70097610571050895B3
:101610009B01AC010A2E069457954795379527955F
:10162000BA95C9F7620F731F841F951FA01D0895F7
:04163000F894FFCF5C
:10163400496E6974696C697A6174696F6E20666950
:101644006E69736865642E200D0A00663A00252EC3
:0E16540032662C00643A252E32660D0A000024
:00000001FF
