:100000000C94B5000C94D2000C94D2000C94D20045
:100010000C94D2000C94D2000C94D2000C94D20018
:100020000C94D2000C94D2000C94D2000C94D20008
:100030000C94D2000C94D2000C9493010C94D20036
:100040000C94D2000C94D2000C94D2000C94D200E8
:100050000C94D2000C94D2000C94D2000C94D200D8
:100060000C94D2000C94D2006E616E00696E660032
:1000700000407A10F35A00A0724E18090010A5D45F
:10008000E80000E87648170000E40B54020000CABC
:100090009A3B000000E1F505000080969800000002
:1000A00040420F000000A086010000001027000061
:1000B0000000E803000000006400000000000A00E7
:1000C000000000000100000000002C76D888DC67EA
:1000D0004F0823DFC1DFAE59E1B1B796E5E3E45342
:1000E000C63AE651997696E8E6C28426EB898C9B5F
:1000F00062ED407C6FFCEFBC9C9F40F2BAA56FA5FF
:10010000F490055A2AF75C936B6CF9676DC11BFC80
:10011000E0E40D47FEF520E6B500D0ED902E03009B
:10012000943577050080841E080000204E0A0000E8
:1001300000C80C333333330F986E12831141EF8DA7
:100140002114893BE65516CFFEE6DB18D1844B38E7
:100150001BF77C1D901DA4BBE424203284725E2218
:100160008100C9F124ECA1E53D2711241FBECFEF8A
:10017000D8E0DEBFCDBF12E0A0E0B1E0E6ECF8E1F0
:1001800002C005900D92AE30B107D9F716E0AEE08F
:10019000B2E001C01D92A531B107E1F70E94D40081
:1001A0000C94610C0C94000081E090E00E947403B8
:1001B00080E091E00E94B70389EF0E94FA030E9459
:1001C000FE0360E875E280E090E00E94DE020E949B
:1001D000290478940F2EF1E58F2EF5E09F2EF02D57
:1001E0000F2EF0E02F2EF2E03F2EF02D8091140222
:1001F000803208F496C0F894E5E9F3E0A5E9B5E0AB
:1002000080E801900D928A95E1F720E245E954E0FB
:1002100065E175E085E995E00E94500405E115E08F
:10022000C5E9D4E00F2EF5E1AF2EF3E0BF2EF02D9F
:10023000CE01E8018C016991799189919991D80158
:10024000CD90DD90ED90FD908D019B01AC010E9461
:10025000540A2B013C01A7019601C701B6010E9477
:10026000540A9B01AC01C301B2010E94FA08262F77
:10027000372F462F572F682F792FF5014193519330
:10028000619371935F019F938F933F932F933F925D
:100290002F920E94F1020F900F900F900F900F90ED
:1002A0000F90C815D90539F6D4016D917D918D91C6
:1002B0009C91E1EDF4E0C080D180E280F3809B016D
:1002C000AC010E94540A2B013C01A7019601C70111
:1002D000B6010E94540A9B01AC01C301B2010E9405
:1002E000FA08262F372F462F572F682F792FA1E591
:1002F000B3E04D935D936D937C9313979F938F938E
:100300003F932F93A6E0B2E0BF93AF930E94F10218
:100310001092140278940F900F900F900F900F90FE
:100320000F90000063CF1F920F920FB60F9211240F
:100330002F933F934F935F936F937F938F939F93ED
:10034000AF93BF93EF93FF930E943A0490931302ED
:1003500080931202BC0180E090E00E94C60920E078
:1003600030E040E85AE30E94540A20E030E040EADE
:1003700050E40E94540A20E030E040E250E40E9441
:10038000F90860930E0270930F028093100290930D
:100390001102E0911402E03278F421E02E0F209354
:1003A0001402F0E0EE0FFF1FEE0FFF1FEB56FC4FA5
:1003B0006083718382839383FF91EF91BF91AF91AB
:1003C0009F918F917F916F915F914F913F912F916D
:1003D0000F900FBE0F901F9018950F931F938B01D6
:1003E0009C01005B14402109310901351D4B21405E
:1003F000310510F5DC01CB01880F991FAA1FBB1F27
:10040000880F991FAA1FBB1F9C01AD01220F331F2C
:10041000441F551F220F331F441F551F60E074E215
:1004200084EF90E00E94A008215031093093C5006C
:100430002093C40080E001C081E01F910F910895D6
:10044000813069F098F08230C1F4E2ECF0E0808114
:100450008062808380818F7E808380E00895E2ECDB
:10046000F0E080818063808380E00895E2ECF0E03A
:1004700080818F7C808380E0089581E008958130C1
:1004800019F0823041F00EC0E2ECF0E08081877F0D
:10049000808380E00895E2ECF0E0808188608083D2
:1004A00080E0089581E00895863081F018F4853069
:1004B00031F027C08730A1F08830E1F022C0E2ECB3
:1004C000F0E08081897F808380E00895E2ECF0E0B5
:1004D00080818260808380818B7F808380E008952B
:1004E000E2ECF0E080818460808380818D7F808376
:1004F00080E00895E2ECF0E080818660808380E017
:10050000089581E0089586E08093C2001092C500AE
:1005100087E68093C40008958091C00088231CF46E
:100520008091C600089580E008959091C00095FDE7
:1005300006C0E0ECF0E00000908195FFFCCF8093D6
:10054000C6000895E1ECF0E0808180618083089529
:10055000E1ECF0E080818F7E80830895E1ECF0E0B3
:100560008081806880830895E1ECF0E080818F775E
:1005700080830895E1ECF0E08081886080830895B5
:10058000E1ECF0E08081877F80830895E1ECF0E08A
:100590008081806480830895E1ECF0E080818F7B2E
:1005A00080830895E1ECF0E080818062808308958B
:1005B000E1ECF0E080818F7D80830895CF92DF921F
:1005C000EF92FF926B017C010E948302C701B6018A
:1005D0000E94ED010E94BA02FF90EF90DF90CF9051
:1005E0000895EF92FF920F931F93CF93DF93CDB7B0
:1005F000DEB7FE013996419151919F0160E071E0B3
:1006000085E192E00E94D70B882381F005E112E09A
:10061000815090E09C012A5E3D4F7901F801819163
:100620008F010E9495020E151F05C1F7DF91CF9132
:100630001F910F91FF90EF9008950E9495020895E9
:10064000FC012081318184819581AC014F5F5F4F36
:1006500055834483D901A80FB91F6C938085918578
:1006600001969187808784819581628173810E9440
:100670008C08958384830895CF93FC012085318570
:1006800021153105C9F06081718186819781AC01A6
:100690004F5F5F4F57834683DB01A80FB91FCC9193
:1006A000215031093187208762817381CA010E94FC
:1006B0008C089783868301C0C0E08C2FCF9108956A
:1006C000FC01158214821782168211861086019011
:1006D000F081E02D10820895FC01718360835383C3
:1006E00042830E946003089582309105F1F028F45E
:1006F000009751F0019779F008958430910531F118
:10070000D8F0059769F1089584B58C7F84BD85B5CF
:10071000877F85BD089584B58E7F84BD84B5826052
:1007200084BD85B5877F85BD089584B5836084BD0C
:1007300085B5877F85BD089584B58D7F84BD84B5DB
:10074000816084BD85B5877F85BD089584B58D7F23
:1007500084BD84B5816084BD85B5886085BD0895FC
:1007600084B5836084BD85B5886085BD0895803477
:100770009105F9F030F48130910559F0089789F02E
:1007800030C0811521E09207E1F08115944009F114
:1007900028C085B5897F85BD85B5816085BD80E030
:1007A000089585B58A7F85BD85B5826085BD80E069
:1007B000089585B58B7F85BD85B5836085BD80E057
:1007C000089585B58C7F85BD85B5846085BD80E045
:1007D000089585B58D7F85BD85B5856085BD80E033
:1007E000089585B5887F85BD81E0089585B5887FAA
:1007F00085BD089587BD089588BD0895EEE6F0E0B3
:100800008081826080830895EEE6F0E080818D7FB4
:1008100080830895EEE6F0E080818460808308950F
:10082000EEE6F0E080818B7F80830895EEE6F0E0D5
:100830008081816080830895EEE6F0E080818E7F84
:1008400080830895ECE7F0E090818770982B908387
:100850000895EAE7F0E0808187608083ACE7B0E04C
:100860008C9180648C9380818068808380E00E947A
:1008700022040895EAE7F0E080818064808380812B
:1008800086FF04C00000808186FDFCCF20917800A7
:100890008091790090E0982F8827820F911D08950C
:1008A0002F923F924F925F926F927F928F929F9280
:1008B000AF92BF92CF92DF92EF92FF920F931F936E
:1008C000CF93DF93CDB7DEB728970FB6F894DEBF8E
:1008D0000FBECDBF422E512C4114510409F488C0E3
:1008E00069837A834B835C83212C312C8D839E8397
:1008F00089809A80F40110821182128213826B80A7
:100900007C80F3011082118212821382CD80DE80FE
:10091000E12CF12C00E010E0D886CF82C701B201B3
:100920000E948C08AF80B8846C01CC0CDD1CCC0C10
:10093000DD1CF601E050FF4F20813181428153815F
:10094000F5016191719181919191F887EF830E94F6
:10095000540A23EF34E045EB50E40E945E099B010A
:10096000AC01F40160817181828193810E94FA0857
:10097000F4016083718382839383F601E058FE4F14
:100980002081318142815381F501608171818281B1
:1009900093810E94540A23EF34E045EB50E40E9417
:1009A0005E099B01AC01F3016081718182819381B9
:1009B0000E94F908F30160837183828393830F5F40
:1009C0001F4FE20CF31C0415150508F4A7CFFFEF29
:1009D0002F1A3F0A89819A8104969A838983EB8131
:1009E000FC813496FC83EB832414350408F480CF17
:1009F00028960FB6F894DEBF0FBECDBFDF91CF9122
:100A00001F910F91FF90EF90DF90CF90BF90AF902C
:100A10009F908F907F906F905F904F903F902F901E
:100A20000895A3E1B0E0E7E1F5E00C94C2087C0191
:100A30001B016A01FC0117821682838181FF66C354
:100A4000BE016F5F7F4F4B01F7019381F10193FD71
:100A5000859193FF81911F01882309F453C3853247
:100A600039F493FD859193FF81911F01853239F40B
:100A7000B70190E00E94A50B56016501E5CF10E09B
:100A8000512C20E02032A0F48B3269F030F4803217
:100A900059F0833269F420612CC08D3239F08033F3
:100AA00039F4216026C02260246023C0286021C060
:100AB00027FD27C030ED380F3A3078F426FF06C006
:100AC000FAE01F9F300D1124132F13C06AE0569EC9
:100AD000300D1124532E20620CC08E3221F426FDDD
:100AE00011C3206406C08C3611F4206802C0883619
:100AF00041F4F10193FD859193FF81911F018111D3
:100B0000C1CF9BEB980F933018F42061805E06C034
:100B10009BE9980F933008F0AAC12F7E26FF16E0BC
:100B20002F73722E853621F4F22FF0647F2E08C0C9
:100B3000863621F4622F6068762E02C011111150A2
:100B400077FE07C01C3348F444244394410E27E049
:100B50000BC0183030F4212F06C027E04CE3442EA0
:100B600003C027E017E0412C560174E0A70EB11C2A
:100B7000F6016081718182819381042DA4010E941C
:100B8000B70A6C01098100FF02C003FF06C071FCB7
:100B900007C072FC08C0612C08C03DE2632E05C08E
:100BA0002BE2622E02C090E2692E802F8C7099F1A8
:100BB000662011F084E001C083E0851510F0512C0F
:100BC0000BC0581A73FC08C0B70180E290E00E9485
:100BD000A50B5A94C9F7F3CF662029F0B701862DEB
:100BE00090E00E94A50B03FD03C00CE610E002C0DC
:100BF00008E610E0F72DF0717F2EF801849188232C
:100C000009F476C271108052B70190E00E94A50BE2
:100C10000F5F1F4FF2CF77FE0FC04C0C04FF04C0D4
:100C20008A81813309F44A94141474F5F8E0F415B8
:100C300078F588E0482E2CC076FC2AC0812F90E001
:100C40008C159D059CF06CEFC6166FEFD60674F000
:100C5000772D7068772E0AC0E2E0F0E0EC0FFD1F00
:100C6000E10FF11D8081803319F411501111F4CF7F
:100C700077FE0EC044244394410E812F90E0C816A5
:100C8000D9062CF41C1904C04424439401C010E07C
:100C900077FE07C01C141D043CF496012F5F3F4FE4
:100CA00005C025E030E002C021E030E0662011F010
:100CB0002F5F3F4F112331F0412F50E04F5F5F4FC7
:100CC000240F351F452D50E02417350714F4521A10
:100CD00001C0512C872D897049F4552039F0B70196
:100CE00080E290E00E94A50B5A94F7CF662029F08D
:100CF000B701862D90E00E94A50B73FC09C055201A
:100D000039F0B70180E390E00E94A50B5A94F7CF29
:100D100077FE5FC09C2D8D2DD7FE02C090E080E055
:100D2000692E782E40E050E0C601841991099D8714
:100D30008C87960126193709280D391D812F90E0DF
:100D4000EE27FF27E81BF90BFF87EE87FFEF6F16F3
:100D50007F0669F4B7018EE290E02B8B3A8B488BCB
:100D6000598B0E94A50B598948893A892B89C61449
:100D7000D70454F06C857D85661577052CF4F90150
:100D8000E40FF51F818101C080E371E0671A7108EB
:100D90004F5F5F4FEE85FF856E167F066CF0B701E3
:100DA00090E02B8B3A8B488B598B0E94A50B2B899B
:100DB0003A8948895989CACF6C147D0439F49A81DB
:100DC000963318F4953311F404FF81E3B70190E0F2
:100DD0004BC08A81813309F00F7EB70190E00E94F9
:100DE000A50B111105C074FE18C085E490E017C072
:100DF000B7018EE290E00E94A50B82E06624639426
:100E0000680EF401E80FF11D8081B70190E00E94A7
:100E1000A50B115041F3862DF1CF85E690E0B70187
:100E20000E94A50BD7FC05C0C114D10439F404FFFE
:100E300005C0D194C194D1088DE201C08BE2B70105
:100E400090E00E94A50B80E36AE0C616D1042CF066
:100E50008F5FFAE0CF1AD108F7CFB70190E00E9478
:100E6000A50BB701C601C0960E94A50B41C18336F0
:100E700031F0833779F0833509F058C021C056012D
:100E800072E0A70EB11CF6018081898301E010E0B9
:100E9000640114C05601F2E0AF0EB11CF601C0802F
:100EA000D18026FF03C0612F70E002C06FEF7FEF9B
:100EB000C6012B8B0E949A0B8C012B892F7715C0B2
:100EC0005601F2E0AF0EB11CF601C080D18026FFC2
:100ED00003C0612F70E002C06FEF7FEFC6012B8B64
:100EE0000E948F0B8C012B892068722E23FD1AC063
:100EF000852D90E008171907A8F4B70180E290E06B
:100F00000E94A50B5A94F4CFF60177FC859177FEE9
:100F100081916F01B70190E00E94A50B51105A9486
:100F2000015011090115110579F7E2C0843611F05D
:100F3000893651F5560127FF09C0F4E0AF0EB11C08
:100F4000F60160817181828193810AC0F2E0AF0E67
:100F5000B11CF60160817181882777FD8095982FFB
:100F6000022F0F7697FF08C0909580957095619538
:100F70007F4F8F4F9F4F00682AE030E0A4010E940E
:100F8000030CC82EC8183EC0022F853721F40F7EEF
:100F90002AE030E01DC0097F8F3691F018F48835C3
:100FA00059F0B0C0803719F0883711F0ABC000613C
:100FB00004FF09C0046007C024FF08C0066006C023
:100FC00028E030E005C020E130E002C020E132E05E
:100FD000560107FF09C0F4E0AF0EB11CF6016081B5
:100FE00071818281938108C0F2E0AF0EB11CF601DD
:100FF0006081718180E090E0A4010E94030CC82E02
:10100000C8180F7706FF0BC0202F2E7FC11650F493
:1010100004FF0AC002FD08C0202F2E7E05C0DC2C74
:10102000202F03C0DC2C01C0D12E24FF0DC0FE01F7
:10103000EC0DF11D8081803311F4297E09C022FF5F
:1010400006C0D394D39404C0822F867809F0D39439
:1010500023FD13C020FF06C01C2DD51418F4150D58
:101060001D19D52CD51468F4B70180E290E02B8BC4
:101070000E94A50BD3942B89F5CFD51410F45D18DD
:1010800001C0512C24FF12C0B70180E390E02B8BEC
:101090000E94A50B2B8922FF17C021FF03C088E502
:1010A00090E002C088E790E0B7010CC0822F8678FC
:1010B00059F021FD02C080E201C08BE227FD8DE2E4
:1010C000B70190E00E94A50BC11638F4B70180E388
:1010D00090E00E94A50B1150F7CFCA94F401EC0DDB
:1010E000F11D8081B70190E00E94A50BC110F5CFE2
:1010F000552009F4C2CCB70180E290E00E94A50B14
:101100005A94F6CFF7018681978102C08FEF9FEF47
:101110006396E2E10C94DE08AA1BBB1B51E107C0F9
:10112000AA1FBB1FA617B70710F0A61BB70B881F77
:10113000991F5A95A9F780959095BC01CD01089506
:10114000A1E21A2EAA1BBB1BFD010DC0AA1FBB1FCB
:10115000EE1FFF1FA217B307E407F50720F0A21B3D
:10116000B30BE40BF50B661F771F881F991F1A94AA
:1011700069F760957095809590959B01AC01BD01D4
:10118000CF0108952F923F924F925F926F927F927C
:101190008F929F92AF92BF92CF92DF92EF92FF9287
:1011A0000F931F93CF93DF93CDB7DEB7CA1BDB0B33
:1011B0000FB6F894DEBF0FBECDBF09942A883988D8
:1011C00048885F846E847D848C849B84AA84B984DF
:1011D000C884DF80EE80FD800C811B81AA81B981EB
:1011E000CE0FD11D0FB6F894DEBF0FBECDBFED01FF
:1011F00008955058BB27AA270ED01CC10DD130F03E
:1012000012D120F031F49F3F11F41EF402C10EF40C
:10121000E095E7FBF8C0E92F1ED180F3BA1762070B
:1012200073078407950718F071F49EF536C10EF424
:10123000E0950B2EBA2FA02D0B01B90190010C01E6
:10124000CA01A0011124FF27591B99F0593F50F4FE
:10125000503E68F11A16F040A22F232F342F442756
:10126000585FF3CF469537952795A795F04053954E
:10127000C9F77EF41F16BA0B620B730B840BBAF01E
:101280009150A1F0FF0FBB1F661F771F881FC2F789
:101290000EC0BA0F621F731F841F48F4879577959D
:1012A0006795B795F7959E3F08F0B3CF9395880F54
:1012B00008F09927EE0F9795879508950CD0BAC03E
:1012C000B2D040F0A9D030F021F45F3F19F09BC0BC
:1012D0005111E4C09EC0BFD098F39923C9F35523A0
:1012E000B1F3951B550BBB27AA2762177307840719
:1012F00038F09F5F5F4F220F331F441FAA1FA9F3CF
:1013000033D00E2E3AF0E0E830D091505040E695C0
:10131000001CCAF729D0FE2F27D0660F771F881F21
:10132000BB1F261737074807AB07B0E809F0BB0B10
:10133000802DBF01FF2793585F4F2AF09E3F510534
:1013400068F061C0ABC05F3FECF3983EDCF386957C
:1013500077956795B795F7959F5FC9F7880F911DAA
:101360009695879597F90895E1E0660F771F881F96
:10137000BB1F621773078407BA0720F0621B730B49
:10138000840BBA0BEE1F88F7E0950895E89409C026
:1013900097FB3EF490958095709561957F4F8F4FA8
:1013A0009F4F9923A9F0F92F96E9BB279395F695BE
:1013B000879577956795B795F111F8CFFAF4BB0F3C
:1013C00011F460FF1BC06F5F7F4F8F4F9F4F16C0A0
:1013D000882311F096E911C0772321F09EE8872F2A
:1013E000762F05C0662371F096E8862F70E060E0E6
:1013F0002AF09A95660F771F881FDAF7880F96955F
:10140000879597F9089597F99F6780E870E060E005
:1014100008959FEF80EC089500240A94161617068D
:1014200018060906089500240A94121613061406D5
:1014300005060895092E0394000C11F4882352F038
:10144000BB0F40F4BF2B11F460FF04C06F5F7F4FF0
:101450008F4F9F4F089557FD9058440F551F59F0D7
:101460005F3F71F04795880F97FB991F61F09F3F91
:1014700079F087950895121613061406551FF2CFBA
:101480004695F1DF08C0161617061806991FF1CF0A
:1014900086957105610508940895E894BB27662731
:1014A0007727CB0197F908950BD0C4CFB5DF28F08B
:1014B000BADF18F0952309F0A6CFABCF1124EECFF9
:1014C000CADFA0F3959FD1F3950F50E0551F629F9F
:1014D000F001729FBB27F00DB11D639FAA27F00D8D
:1014E000B11DAA1F649F6627B00DA11D661F829FB4
:1014F0002227B00DA11D621F739FB00DA11D621F99
:10150000839FA00D611D221F749F3327A00D611DB5
:10151000231F849F600D211D822F762F6A2F112497
:101520009F5750408AF0E1F088234AF0EE0FFF1FEA
:10153000BB1F661F771F881F91505040A9F79E3F21
:10154000510570F060CFAACF5F3FECF3983EDCF31B
:10155000869577956795B795F795E7959F5FC1F75E
:10156000FE2B880F911D9695879597F90895283041
:1015700008F027E03327DA01990F311D87FD9160CC
:1015800000966105710539F432602E5F3D9330E3BA
:101590002A95E1F708959F3F30F080387105610585
:1015A00009F03C5F3C5F3D93913008F08068911DED
:1015B000DF93CF931F930F93FF92EF92192F987F92
:1015C0009695E92F96959695E90FFF27E653FF4FDD
:1015D00099273327EE24FF24A701E70105900894FB
:1015E000079428F4360FE71EF81E491F511D660F99
:1015F000771F881F991F0694A1F70590079428F478
:10160000E70EF81E491F561FC11D770F881F991F2F
:10161000661F0694A1F70590079428F4F80E491F59
:10162000561FC71FD11D880F991F661F771F06946D
:10163000A1F70590079420F4490F561FC71FD81F24
:10164000990F661F771F881F0694A9F7849110953C
:10165000177041F0D695C79557954795F794E7943D
:101660001A95C1F7E0E7F0E068941590159135916F
:101670006591959105907FE27395E118F10A430B0E
:10168000560BC90BD009C0F7E10CF11E431F561FC2
:10169000C91FD01D7EF4703311F48A95E6CFE8940B
:1016A000015030F0080F0AF40027021708F4202F29
:1016B0002395022F7A3328F079E37D932A95E9F771
:1016C00010C07D932A9589F606949795679537956E
:1016D00017951794E118F10A430B560BC90BD00963
:1016E00098F023957E9173957A3308F070E37C939C
:1016F0002013B8F77E9170617D9330F0839571E38C
:101700007D9370E32A95E1F71124EF90FF900F91FC
:101710001F91CF91DF91992787FD90950895FC0146
:101720000590615070400110D8F7809590958E0F0C
:101730009F1F0895FC016150704001900110D8F77F
:10174000809590958E0F9F1F08950F931F93CF93B1
:10175000DF93182F092FEB018B8181FD03C08FEFE1
:101760009FEF20C082FF10C04E815F812C813D81A0
:10177000421753077CF4E881F9819F012F5F3F4FA7
:1017800039832883108306C0E885F985812F099560
:10179000892B29F72E813F812F5F3F4F3F832E8377
:1017A000812F902FDF91CF911F910F910895AEE07F
:1017B000B0E0EDEDFBE00C94D0088C01CA0146E0EE
:1017C0004C831A83098377FF02C060E070E86150A0
:1017D00071097E836D83A901BC01CE0101960E942F
:1017E00011054D815E8157FD0AC02F813885421752
:1017F00053070CF49A01F801E20FF31F10822E96A2
:10180000E4E00C94EC08FA01AA27283051F12031C9
:1018100081F1E8946F936E7F6E5F7F4F8F4F9F4F84
:10182000AF4FB1E03ED0B4E03CD0670F781F891FC6
:101830009A1FA11D680F791F8A1F911DA11D6A0F94
:10184000711D811D911DA11D20D009F468943F9147
:101850002AE0269F11243019305D3193DEF6CF0146
:101860000895462F4770405D4193B3E00FD0C9F70C
:10187000F6CF462F4F70405D4A3318F0495D31FD79
:101880004052419302D0A9F7EACFB4E0A6959795CC
:10189000879577956795BA95C9F7009761057105A2
:1018A00008959B01AC010A2E0694579547953795EC
:1018B0002795BA95C9F7620F731F841F951FA01D46
:0618C0000895F894FFCF2B
:1018C6000000803FBE147B3F5E836C3F31DB543F9C
:1018D600F304353FDA390E3F15EFC33EC2C5473E26
:1018E60000000000C2C547BE15EFC3BEDA390EBF01
:1018F600F30435BF31DB54BF5E836CBFBE147BBFC0
:10190600000080BFBE147BBF5E836CBF31DB54BF5B
:10191600F30435BFDA390EBF15EFC3BEC2C547BEE5
:1019260000000000C2C5473E15EFC33EDA390E3F40
:10193600F304353F31DB543F5E836C3FBE147B3F7F
:1019460000000000C2C5473E15EFC33EDA390E3F20
:10195600F304353F31DB543F5E836C3FBE147B3F5F
:101966000000803FBE147B3F5E836C3F31DB543FFB
:10197600F304353FDA390E3F15EFC33EC2C5473E85
:1019860000000000C2C547BE15EFC3BEDA390EBF60
:10199600F30435BF31DB54BF5E836CBFBE147BBF1F
:1019A600000080BFBE147BBF5E836CBF31DB54BFBB
:1019B600F30435BFDA390EBF15EFC3BEC2C547BE45
:0E19C600252E32662C00252E32660D0A0000FA
:00000001FF
