:100000000C9481000C94A9000C94A9000C94A900F4
:100010000C94A9000C94A9000C94A9000C94A900BC
:100020000C94A9000C94A9000C94A9000C94A900AC
:100030000C94A9000C94A9000C94B3060C94A9008C
:100040000C9411060C94A9000C9481060C945B0688
:100050000C94A9000C94A9000C94A9000C94A9007C
:100060000C94A9000C94A9004E414E494E49545994
:10007000494E46CDCCCC3D0AD7233C17B7D1387773
:10008000CC2B329595E6241FB14F0A000020410089
:1000900000C84200401C4620BCBE4CCA1B0E5AAED3
:1000A000C59D740000000023002600290000000008
:1000B00000240027002A0000000000250028002B53
:1000C0000004040404040404040202020202020301
:1000D000030303030301020408102040800102040B
:1000E000081020010204081020000000080002018E
:1000F00000000304070000000000000000007B086F
:10010000C60911241FBECFEFD8E0DEBFCDBF23E06C
:10011000A2EEB1E001C01D92AB33B207E1F711E0EE
:10012000A0E0B1E0ECE5F0E202C005900D92A23E45
:10013000B107D9F710E0C0E8D0E004C02197FE0174
:100140000E94060ECF37D107C9F70E94CC080C9445
:1001500021100C9400002FB7F894809170029091B8
:100160007102A0917202B09173022FBF80937C0242
:1001700090937D02A0937E02B0937F02E09174027F
:10018000F09175020680F781E02D84E792E00995F1
:1001900097FF26C02FB7F89480917002909171025A
:1001A000A0917202B09173022FBF40917C025091D6
:1001B0007D0260917E0270917F02841B950BA60BDD
:1001C000B70B409178025091790260917A02709158
:1001D0007B0284179507A607B70780F28FEF9FEF82
:1001E00008950895CF92DF92EF92FF920F931F939D
:1001F000CF93DF936C017A018B01C0E0D0E0CE1584
:10020000DF0589F0D8016D918D01D601ED91FC914A
:100210000190F081E02DC6010995892B11F47E0132
:1002200002C02196ECCFC701DF91CF911F910F91B2
:10023000FF90EF90DF90CF900895FC01918D828D1B
:10024000981761F0828DDF01A80FB11D5D968C912A
:10025000928D9F5F9F73928F90E008958FEF9FEF35
:100260000895FC01918D828D981731F0828DE80FF1
:10027000F11D858D90E008958FEF9FEF0895FC01AB
:10028000918D228D892F90E0805C9F4F821B910978
:100290008F739927089584E792E00E943F0121E03F
:1002A000892B09F420E0822F0895FC01848DDF0161
:1002B000A80FB11DA35ABF4F2C91848D90E00196D9
:1002C0008F739927848FA689B7892C93A089B189C8
:1002D0008C9180648C93938D848D981306C00288D2
:1002E000F389E02D80818F7D80830895EF92FF92C6
:1002F0000F931F93CF93DF93EC0181E0888F9B8D49
:100300008C8D981305C0E889F989808185FD24C00A
:10031000F62E0B8D10E00F5F1F4F0F731127E02E8D
:100320008C8DE8120CC00FB607FCFACFE889F9896A
:10033000808185FFF5CFCE010E945501F1CF8B8DD5
:10034000FE01E80FF11DE35AFF4FF0820B8FEA899F
:10035000FB898081806207C0EE89FF896083E8891C
:10036000F98980818064808381E090E0DF91CF9182
:100370001F910F91FF90EF900895CF93DF93EC01C1
:10038000888D8823C9F0EA89FB89808185FD05C0B5
:10039000A889B9898C9186FD0FC00FB607FCF5CFEF
:1003A000808185FFF2CFA889B9898C9185FFEDCF37
:1003B000CE010E945501E7CFDF91CF9108958330A0
:1003C00081F028F4813099F08230A1F008958730CF
:1003D000A9F08830B9F08430D1F4809180008F7D0D
:1003E00003C0809180008F7780938000089584B54A
:1003F0008F7702C084B58F7D84BD08958091B00051
:100400008F7703C08091B0008F7D8093B0000895F6
:100410001F93CF93DF93E3EFF0E09491EFEDF0E0E3
:10042000D491EBECF0E0C491CC23D9F0182F9923B0
:1004300019F0892F0E94DF01EC2FF0E0EE0FFF1F73
:10044000E954FF4FA591B4918FB7F894111105C0ED
:100450009C91ED2FE095E92302C0EC91ED2BEC93FC
:100460008FBFDF91CF911F910895CF93DF9390E0DD
:10047000FC01EB52FF4F2491FC01EF53FF4F84919D
:10048000882361F190E0880F991FFC01E355FF4F2D
:10049000C591D491FC01E954FF4FA591B49161112C
:1004A00009C09FB7F8948881209582238883EC91B6
:1004B0002E230BC0623061F49FB7F8943881822FED
:1004C000809583238883EC912E2B2C939FBF06C0AD
:1004D0008FB7F894E8812E2B28838FBFDF91CF91BF
:1004E0000895009769F0FC0101900020E9F7319729
:1004F000AF01481B590BBC0184E792E00C94F20059
:1005000080E090E00895CF93DF930E947102EC01A8
:100510008AE791E00E9471028C0F9D1FDF91CF91BD
:1005200008958F929F92AF92BF920F931F93CF9394
:10053000DF93CDB7DEB7A1970FB6F894DEBF0FBE3D
:10054000CDBF19A2423008F44AE08E010F5D1F4F63
:10055000842E912CA12CB12CA50194010E94E40DB4
:10056000E62FB901CA0101501109EA3014F4E05D27
:1005700001C0E95CD801EC93232B242B252B61F7D8
:10058000C8010E947102A1960FB6F894DEBF0FBE9B
:10059000CDBFDF91CF911F910F91BF90AF909F90F2
:1005A0008F9008954F925F926F927F928F929F9259
:1005B000AF92BF92CF92DF92EF92FF926B017C01DC
:1005C0009B01AC010E94DF0D882319F08DE791E0BB
:1005D0001AC046015701E894B7F82FEF3FEF4FE7F5
:1005E0005FE7C501B4010E94DF0D811110C02FEF3C
:1005F0003FEF4FE75FE7C501B4010E94540B1816A7
:1006000034F481E891E00E9471027C018FC02FEFE9
:100610003FEF4FE75FE4C701B6010E94DA0D1816FD
:100620001CF485E891E0EFCF2FEF3FEF4FE75FEC51
:10063000C701B6010E94540B87FDF3CF20E030E0E4
:10064000A901C701B6010E94540B87FF11C0E091B8
:100650007402F09175020190F081E02D6DE284E763
:1006600092E009955C01F7FAF094F7F8F09402C073
:10067000A12CB12C2AE037ED43EA5BE3C701B601B8
:100680000E94CD0C2B013C010E94AB0D6B017C0143
:100690000E94590B9B01AC01C301B2010E94CC0C1A
:1006A0002B013C014AE0C701B6010E9491027C0186
:1006B000EA0CFB1CE0917402F09175020190F0814C
:1006C000E02D6EE284E792E00995E80EF91E20E045
:1006D00030E040E251E4C301B2010E94BA0B2B01A9
:1006E0003C010E94AB0D4B01A12CB12C4AE0C5018D
:1006F000B4010E949102E80EF91EC501B4010E94E6
:10070000590B9B01AC01C301B2010E94CC0C20E04B
:1007100030E040E251E40E94BA0B0E94AB0D80E051
:1007200090E04AE00E949102E80EF91E8AE791E00B
:100730000E9471028E0D9F1DFF90EF90DF90CF9071
:10074000BF90AF909F908F907F906F905F904F90F1
:1007500008950E940310CF93DF93DC01ED91FC918B
:10076000EB01A881B981309711F01097C9F4109767
:1007700059F0EB012C813D81232B31F08C9190E0DD
:1007800091958195910914C0309781F0DC01149600
:100790008D919C911597892B49F0808190E008C03C
:1007A000BD01CF01DF91CF910C94111080E090E05A
:1007B000DF91CF9108950F931F93CF93DF938C0117
:1007C000EB01FC01808191810097B1F06881798112
:1007D0006115710579F0428153812C813D81421769
:1007E000530740F00E941A108C819D81F801958377
:1007F000848313C00E94A10E88819981F80191839E
:1008000080838A819B81938382838C819D81958360
:100810008483198218821B821A821D821C82DF91B6
:10082000CF911F910F910895FC01808191810C94CB
:10083000A10E0F931F93CF93DF93EC0188819981D1
:10084000009729F02A813B812617370788F48B010E
:100850006F5F7F4F0E94390F009761F09983888303
:100860001B830A832C813D81232B11F4FC01108210
:1008700081E001C080E0DF91CF911F910F91089539
:10088000EF92FF920F931F93CF93DF93EC017B01C5
:100890008A01BA010E9419042881398181110DC091
:1008A0002115310519F0C9010E94A10E1982188283
:1008B0001D821C821B821A8206C01D830C83B70115
:1008C000C9010E941A10CE01DF91CF911F910F91A3
:1008D000FF90EF900895FC01118210821382128222
:1008E000158214826115710551F0FB010190002001
:1008F000E9F73197AF01461B570B0C94400408955C
:10090000CF92DF92EF92FF920F931F93CF93DF93DB
:1009100000D0CDB7DEB78C01C62E6CE771E00E9427
:100920006B040E94AB000C2C000CDD0897FD23C06B
:100930008C159D0501F189831A82F801E480F58008
:10094000FFEFEF1AFF0AB701C8010E9419048823BC
:1009500079F0F8012081318184819581BE016F5F3A
:100960007F4F820F931F0E941A10F801F582E482D4
:100970000E94AB00DBCFC8010F900F90DF91CF91A9
:100980001F910F91FF90EF90DF90CF9008958F927D
:100990009F92AF92BF92CF92DF92EF92FF920F930E
:1009A0001F93CF93DF93CDB7DEB768970FB6F89458
:1009B000DEBF0FBECDBF6AE3CE010D960E9480045C
:1009C0006CE771E0CE0107960E946B046CE771E062
:1009D000CE0101960E946B0489899A89892B09F4BA
:1009E000D8C00D851E8569E871E0C8010E9411100C
:1009F000892B09F054C06BE3CE0143960E9480041A
:100A0000BE016D5E7F4FCE0107960E94DB03CE01D3
:100A100043960E9414041C8A1B8A1E8A1D8A188E03
:100A20001F8A6F8178856115710531F04B855C8572
:100A3000CE0143960E944004CF88D88C3DE1E32E3E
:100A400033E0F32E00E010E0F701848195818C15EE
:100A50009D0509F0C1C0BE016D5E7F4FC7010E94B8
:100A6000AB03892B09F0B8C06B897C89A60184E7A8
:100A700092E00E94F2008CEC91E00E94710293E0FF
:100A8000000F111F9A95E1F7F801E35EFC4F068015
:100A9000F781E02D6081718182819381AFC06BEA23
:100AA00071E0C8010E941110892B09F072C06DE33A
:100AB000CE0143960E948004BE016D5E7F4FCE0141
:100AC00007960E94DB03CE0143960E9414046BE359
:100AD000CE0143960E948004BE016D5E7F4FCE0121
:100AE00001960E94DB03CE0143960E941404898183
:100AF0009A81009729F00E94D2094B015C0103C042
:100B0000812C912C54011C8A1B8A1E8A1D8A188EE6
:100B10001F8A6F8178856115710531F04B855C8581
:100B2000CE0143960E944004CF88D88C2DE1E22E5E
:100B300023E0F22E00E010E0F701848195818C150E
:100B40009D0509F05EC0BE016D5E7F4FC7010E942A
:100B5000AB03892B09F055C083E0000F111F8A9564
:100B6000E1F7F801E35EFC4F0680F781E02D80821B
:100B70009182A282B3826B897C89A60184E792E08C
:100B80000E94F20080ED91E00E947102C501B40163
:100B900035C08FEA91E00E948302CE0101960E9447
:100BA0001404CE0107960E941404CE010D960E94F3
:100BB000140468960FB6F894DEBF0FBECDBFDF9168
:100BC000CF911F910F91FF90EF90DF90CF90BF904A
:100BD000AF909F908F9008950F5F1F4FF8E0EF0E3A
:100BE000F11C0330110509F02FCF8DE891E00E9430
:100BF0008302CE0143960E941404CFCF0E94D202FA
:100C0000F8CF0F5F1F4F88E0E80EF11C033011058D
:100C100009F092CFEACF0E944B0181110C94C704D6
:100C200008951F920F920FB60F9211242F933F93A6
:100C30008F939F93AF93BF938091700290917102B5
:100C4000A0917202B091730230916F0223E0230FE2
:100C50002D3720F40196A11DB11D05C026E8230FF4
:100C60000296A11DB11D20936F0280937002909394
:100C70007102A0937202B093730280916B02909103
:100C80006C02A0916D02B0916E020196A11DB11D82
:100C900080936B0290936C02A0936D02B0936E02EE
:100CA000BF91AF919F918F913F912F910F900FBE68
:100CB0000F901F9018951F920F920FB60F9211244C
:100CC0002F933F934F935F936F937F938F939F9354
:100CD000AF93BF93EF93FF9384E792E00E94550197
:100CE000FF91EF91BF91AF919F918F917F916F9104
:100CF0005F914F913F912F910F900FBE0F901F90DA
:100D000018951F920F920FB60F9211242F938F9365
:100D10009F93EF93FF93E0918402F091850280818D
:100D2000E0918A02F0918B0282FD12C09081809145
:100D30008D028F5F8F7320918E02821751F0E091A8
:100D40008D02F0E0EC58FD4F958F80938D0201C02D
:100D50008081FF91EF919F918F912F910F900FBE06
:100D60000F901F9018951F920F920FB60F9211249B
:100D70004F925F926F927F928F929F92AF92BF92AB
:100D8000CF92DF92EF92FF920F931F932F933F9397
:100D90004F935F936F937F938F939F93AF93BF9383
:100DA000EF93FF93CF93DF9300D000D0CDB7DEB7A2
:100DB000F894EBEEF0E08491E7EDF0E0E490E3EC02
:100DC000F0E0F490FF2079F081110E94DF01EF2D17
:100DD000F0E0EE0FFF1FED55FF4FA591B491EC91A0
:100DE000EE2109F05EC18AE999E9A9E9BEE38093A1
:100DF000190390931A03A0931B03B0931C0380E084
:100E000090E0A0E8BFE38093150390931603A093AE
:100E10001703B09318038FE892ECA5E7BDE3809326
:100E2000110390931203A0931303B093140383E46C
:100E300080937C0080917A00806480937A00809116
:100E40007A0086FDFCCF609178008091790070E097
:100E5000782B072E000C880B990B0E945B0B60937C
:100E6000520270935302809354029093550220E0F3
:100E700030E040EA50E40E94BA0B20E030E040E865
:100E80005AE30E94BA0B9B01AC016AE077ED83E262
:100E900090E40E94CC0CE2E4F2E002EE11E0F29069
:100EA000E290D290C290C482D582E682F78221E09D
:100EB000E23EF207A1F76093E2017093E3018093B1
:100EC000E4019093E50196E0A92E91E0B92EC12CA2
:100ED000D12C7601F50161917191819191915F0120
:100EE000F80121913191419151918F010E94BA0BEA
:100EF0009B01AC01C701B6010E94CD0C6B017C01C6
:100F0000FAE6AF16F1E0BF0629F720E030E0A901CC
:100F10000E94BA0B20914E0230914F024091500234
:100F2000509151020E94CD0C2B013C0160934E0266
:100F300070934F02809350029093510220914A0285
:100F400030914B0240914C0250914D02C701B601C5
:100F50000E94CC0C4B015C016093460270934702E7
:100F600080934802909349022091190330911A030B
:100F700040911B0350911C03C701B6010E94BA0B9C
:100F800069837A838B839C832091150330911603A8
:100F90004091170350911803C301B2010E94BA0B8C
:100FA0009B01AC0169817A818B819C810E94CD0C6F
:100FB0002B013C0120E030E0A901C501B4010E94F1
:100FC000BA0B2091110330911203409113035091F9
:100FD00014030E94BA0B9B01AC01C301B2010E9431
:100FE000CD0C6093630270936402809365029093CA
:100FF000660220E030E040E250E40E94CD0C20E0A8
:1010000030E040E855E40E94BA0B20E030E040EACE
:1010100050E40E94390D4B015C01C0924A02D0920B
:101020004B02E0924C02F0924D0220E030E0A90128
:101030000E94540B18160CF05AC020E030EF4FE716
:1010400055E4C501B4010E94DA0D87FD07C0812C6B
:1010500080EF982E8FE7A82E85E4B82EC501B40145
:101060000E94AB0D7093580260935702611520E106
:10107000720710F06FEF7FE07B0180EDF81A80E0DF
:101080000E940802FEBC00000DB407FEFDCF8EB525
:10109000EEBC00000DB407FEFDCF8EB581E00E94CE
:1010A000080278940F900F900F900F90DF91CF91DE
:1010B000FF91EF91BF91AF919F918F917F916F9130
:1010C0005F914F913F912F911F910F91FF90EF9062
:1010D000DF90CF90BF90AF909F908F907F906F9058
:1010E0005F904F900F900FBE0F901F901895812C1E
:1010F000912C5401B3CFCF93DF93E4E7F2E0138256
:10110000128288EE93E0A0E0B0E084839583A6830A
:10111000B7838EE691E09183808385EC90E095879C
:10112000848784EC90E09787868780EC90E0918BB1
:10113000808B81EC90E0938B828B82EC90E0958B9E
:10114000848B86EC90E0978B868B118E128E138E9B
:10115000148E69ED71E08DE193E00E946B04CDE1A6
:10116000D3E089E193E09F838E836CED71E085E2AB
:1011700093E00E946B0485E193E09F878E876FED7B
:1011800071E08DE293E00E946B0481E193E09F8B1C
:101190008E8BDF91CF910895789484B5826084BD61
:1011A00084B5816084BD85B5826085BD85B581606B
:1011B00085BD80916E00816080936E0010928100E9
:1011C00080918100826080938100809181008160A4
:1011D0008093810080918000816080938000809165
:1011E000B10084608093B1008091B00081608093F1
:1011F000B00080917A00846080937A0080917A00B8
:10120000826080937A0080917A00816080937A0076
:1012100080917A00806880937A001092C100CFB7E5
:10122000F89480915602811126C0EBECF0E0849195
:10123000EFEDF0E09491E82FF0E0EE0FFF1FE355A3
:10124000FF4FA591B491EC91E92319F481E00E943C
:10125000080261E08AE00E9435028CB580618CBD95
:101260008CB580648CBD61E08DE00E94350261E048
:101270008BE00E943502809156028F5F8093560268
:10128000CFBFE0918402F091850282E08083E091FB
:101290008002F09181021082E0918202F09183023B
:1012A00080E1808310928C02E0918802F0918902A3
:1012B00086E08083E0918602F091870280818061E0
:1012C0008083E0918602F09187028081886080832C
:1012D000E0918602F0918702808180688083E091AE
:1012E0008602F091870280818F7D80838AE090E082
:1012F000A0E0B0E08093780290937902A0937A0204
:10130000B0937B0261E00E94350210925802109265
:10131000570262E082E00E94350210925F02109252
:101320006002109261021092620210925E021092AC
:101330005D0280E090E0A0E8BFE3809359029093C3
:101340005A02A0935B02B0935C0210926702109263
:1013500068021092690210926A021092630210925F
:101360006402109265021092660284B5826084BDA8
:1013700085B5836085BD8AEF87BD80916E008260F0
:1013800080936E0078940E940B06FDCF8DE293E06F
:101390000E94140485E293E00E9414048DE193E01E
:1013A0000C941404662777270C94D609A0E0B0E0CB
:1013B000ECEDF9E00C948A0CEC017B0161157105F0
:1013C00019F0DB018D939C938E010F5F1F4F788086
:1013D000872D90E00E94330B892B11F0E801F4CFA8
:1013E000BDE27B1205C00F5F1F4F7980C1E008C0CE
:1013F000EBE27E1204C08E010E5F1F4F7980C0E0C9
:101400006801F1E0CF1AD10843E050E060E770E0F6
:10141000C6010E943C0B892BF1F4680122E0C20E48
:10142000D11C45E050E06BE670E0C6010E943C0B29
:10143000892B21F4680187E0C80ED11CE114F10466
:1014400019F0D701CD92DC92C111FFC060E070E0CD
:1014500080E89FE703C143E050E068E670E0C60122
:101460000E943C0B892B51F4E114F10409F4F2C001
:101470000E5F1F4FF70111830083ECC0680160E02D
:1014800070E0CB0100E010E0F601D0EDD70DDA30CE
:1014900058F52C2F2260622E2C2F2870C2FF05C019
:1014A000211128C00F5F1F4F25C0222311F00150CA
:1014B0001109A5E0B0E09B01AC010E947B0C4B013F
:1014C0005C01880C991CAA1CBB1CC501B4016D0FE2
:1014D000711D811D911D6839A9E97A078A07A9E163
:1014E0009A0740F0C66005C0DE3F51F4C3FD44C01A
:1014F000C8606C2EBFEFCB1ADB0A7080C62DC4CF3C
:101500002D2F2F7D2531C1F540814D3211F4C06161
:1015100006C04B3221F0319621E030E006C0329611
:10152000D60111964C9122E030E0A0EDA40FAA3034
:1015300018F0E21BF30B20C040E050E04038BCE064
:101540005B075CF49A01220F331F220F331F420FF7
:10155000531F440F551F4A0F511D3196DF0111973C
:101560002C91A0EDA20FAA3048F3C4FF03C05195FF
:1015700041955109040F151FC1FF07C0E114F10483
:1015800021F03197D701ED93FC930E94590BC37062
:10159000C33019F06B017C0106C06B017C01F7FAC6
:1015A000F094F7F8F09420E030E0A901C701B6010B
:1015B0000E94540B882309F445C017FF06C01195FB
:1015C00001951109C7E8D0E002C0CFE9D0E05E0183
:1015D000B8E1AB1AB1084601BE2DAF2D90E2E92E5D
:1015E000F12C0E151F0584F0FE01259135914591D2
:1015F0005491B4018B2F9A2F0E94BA0B4B01B82F34
:10160000A92F0E191F09EDCF2497F594E794CA1559
:10161000DB0539F76401EB2EFA2E8E2D880F8F2D06
:10162000881F8F3F49F020E030E0A901C701B601D3
:101630000E94540B811106C082E290E09093360321
:1016400080933503C701B60109C060E070E080E80F
:101650009FEF04C060E070E080EC9FE7CDB7DEB79D
:10166000EEE00C94A60C91110C94270C803219F02A
:1016700089508550C8F70895FB01DC014150504066
:1016800088F08D9181341CF08B350CF4805E65916F
:1016900061341CF06B350CF4605E861B611171F3D4
:1016A000990B0895881BFCCF0E94960B08F481E0EB
:1016B0000895E89409C097FB3EF490958095709545
:1016C00061957F4F8F4F9F4F9923A9F0F92F96E98E
:1016D000BB279395F695879577956795B795F11103
:1016E000F8CFFAF4BB0F11F460FF1BC06F5F7F4FA0
:1016F0008F4F9F4F16C0882311F096E911C07723B2
:1017000021F09EE8872F762F05C0662371F096E8BA
:10171000862F70E060E02AF09A95660F771F881F89
:10172000DAF7880F9695879597F90895990F00082D
:10173000550FAA0BE0E8FEEF16161706E807F907A3
:10174000C0F012161306E407F50798F0621B730B3E
:10175000840B950B39F40A2661F0232B242B252BBF
:1017600021F408950A2609F4A140A6958FEF811D62
:10177000811D08950E94CD0B0C94410C0E94330CE6
:1017800038F00E943A0C20F0952311F00C942A0CAA
:101790000C94300C11240C94750C0E94520C70F3B4
:1017A000959FC1F3950F50E0551F629FF001729F06
:1017B000BB27F00DB11D639FAA27F00DB11DAA1F15
:1017C000649F6627B00DA11D661F829F2227B00D62
:1017D000A11D621F739FB00DA11D621F839FA00DED
:1017E000611D221F749F3327A00D611D231F849F3D
:1017F000600D211D822F762F6A2F11249F57504094
:101800009AF0F1F088234AF0EE0FFF1FBB1F661F0E
:10181000771F881F91505040A9F79E3F510580F0D7
:101820000C942A0C0C94750C5F3FE4F3983ED4F3AF
:10183000869577956795B795F795E7959F5FC1F77B
:10184000FE2B880F911D9695879597F908959927F6
:101850008827089597F99F6780E870E060E0089511
:101860009FEF80EC089500240A94161617061806B8
:101870000906089500240A94121613061406050694
:101880000895092E0394000C11F4882352F0BB0F25
:1018900040F4BF2B11F460FF04C06F5F7F4F8F4F88
:1018A0009F4F089557FD9058440F551F59F05F3FC3
:1018B00071F04795880F97FB991F61F09F3F79F072
:1018C00087950895121613061406551FF2CF4695F4
:1018D000F1DF08C0161617061806991FF1CF869576
:1018E0007105610508940895E894BB27662777275A
:1018F000CB0197F908950E94BD0CA59F900DB49F50
:10190000900DA49F800D911D112408952F923F9258
:101910004F925F926F927F928F929F92AF92BF92FF
:10192000CF92DF92EF92FF920F931F93CF93DF93AB
:10193000CDB7DEB7CA1BDB0B0FB6F894DEBF0FBE08
:10194000CDBF09942A88398848885F846E847D8455
:101950008C849B84AA84B984C884DF80EE80FD8057
:101960000C811B81AA81B981CE0FD11D0FB6F894CD
:10197000DEBF0FBECDBFED010895A29FB001B39FA2
:10198000C001A39F700D811D1124911DB29F700D88
:10199000811D1124911D08955058BB27AA270E942C
:1019A000E40C0C94410C0E94330C38F00E943A0C69
:1019B00020F039F49F3F19F426F40C94300C0EF407
:1019C000E095E7FB0C942A0CE92F0E94520C58F387
:1019D000BA17620773078407950720F079F4A6F514
:1019E0000C94740C0EF4E0950B2EBA2FA02D0B0165
:1019F000B90190010C01CA01A0011124FF27591B54
:101A000099F0593F50F4503E68F11A16F040A22F59
:101A1000232F342F4427585FF3CF469537952795CA
:101A2000A795F0405395C9F77EF41F16BA0B620BC9
:101A3000730B840BBAF09150A1F0FF0FBB1F661F10
:101A4000771F881FC2F70EC0BA0F621F731F841F53
:101A500048F4879577956795B795F7959E3F08F079
:101A6000B0CF9395880F08F09927EE0F979587953B
:101A700008950E944D0D0C94410C0E943A0C58F0B0
:101A80000E94330C40F029F45F3F29F00C942A0C9B
:101A900051110C94750C0C94300C0E94520C68F38C
:101AA0009923B1F3552391F3951B550BBB27AA2717
:101AB00062177307840738F09F5F5F4F220F331F51
:101AC000441FAA1FA9F335D00E2E3AF0E0E832D019
:101AD00091505040E695001CCAF72BD0FE2F29D01C
:101AE000660F771F881FBB1F261737074807AB07EE
:101AF000B0E809F0BB0B802DBF01FF2793585F4F63
:101B00003AF09E3F510578F00C942A0C0C94750C19
:101B10005F3FE4F3983ED4F3869577956795B79544
:101B2000F7959F5FC9F7880F911D9695879597F94F
:101B30000895E1E0660F771F881FBB1F62177307C8
:101B40008407BA0720F0621B730B840BBA0BEE1FDD
:101B500088F7E09508950E945A0C88F09F5798F0F6
:101B6000B92F9927B751B0F0E1F0660F771F881FA2
:101B7000991F1AF0BA95C9F714C0B13091F00E94BC
:101B8000740CB1E008950C94740C672F782F88279B
:101B9000B85F39F0B93FCCF3869577956795B395E3
:101BA000D9F73EF490958095709561957F4F8F4F52
:101BB0009F4F08950E94960B08F48FEF08950E949E
:101BC000960B880B990B0895A1E21A2EAA1BBB1B3A
:101BD000FD010DC0AA1FBB1FEE1FFF1FA217B307F9
:101BE000E407F50720F0A21BB30BE40BF50B661F0F
:101BF000771F881F991F1A9469F7609570958095D3
:101C000090959B01AC01BD01CF010895EE0FFF1F20
:101C10000590F491E02D0994CF93DF9382309105E4
:101C200010F482E090E0E0913903F0913A0320E073
:101C300030E0C0E0D0E0309711F140815181481789
:101C40005907C0F04817590761F4828193812097A2
:101C500019F09B838A832BC090933A0380933903B6
:101C600026C02115310519F04217530718F49A01BF
:101C7000BE01DF01EF010280F381E02DDCCF2115F1
:101C8000310509F1281B390B2430310590F41296E7
:101C90008D919C9113976115710521F0FB01938340
:101CA000828304C090933A0380933903FD013296F6
:101CB00044C0FD01E20FF31F81939193225031093B
:101CC0002D933C933AC02091370330913803232B56
:101CD00041F42091020130910301309338032093A5
:101CE000370320910001309101012115310541F4A4
:101CF0002DB73EB74091040150910501241B350BCF
:101D0000E0913703F0913803E217F307A0F42E1B9C
:101D10003F0B2817390778F0AC014E5F5F4F24174F
:101D2000350748F04E0F5F1F509338034093370339
:101D30008193919302C0E0E0F0E0CF01DF91CF9179
:101D400008950F931F93CF93DF93009709F48CC0EE
:101D5000FC013297138212820091390310913A03E9
:101D60000115110581F420813181820F931F20918B
:101D70003703309138032817390779F5F093380382
:101D8000E093370371C0D80140E050E0AE17BF07C1
:101D900050F412962D913C911397AD012115310508
:101DA00009F1D901F3CF9D01DA01338322836081E8
:101DB0007181860F971F8217930769F4EC012881C0
:101DC0003981260F371F2E5F3F4F318320838A8151
:101DD0009B8193838283452B29F4F0933A03E0930C
:101DE000390342C01396FC93EE931297ED0149918B
:101DF00059919E01240F351FE217F30771F480817A
:101E00009181840F951F029611969C938E938281E7
:101E1000938113969C938E931297E0E0F0E0D801A3
:101E200012968D919C911397009719F0F8018C01EF
:101E3000F6CF8D919C9198012E5F3F4F820F931F9B
:101E400020913703309138032817390769F4309708
:101E500029F410923A031092390302C013821282BD
:101E60001093380300933703DF91CF911F910F91A7
:101E70000895A0E0B0E0EFE3FFE00C948A0CEC01E1
:101E8000009721F4CB010E940C0EB8C0FC01E60FB4
:101E9000F71F9C0122503109E217F30708F4ACC088
:101EA000D9010D911C91119706171707B0F0053055
:101EB000110508F49FC0C80104978617970708F416
:101EC00099C002501109061B170B019311936D93D2
:101ED0007C93CF010E94A10E8DC05B01A01AB10AB4
:101EE0004C01800E911EA0913903B0913A0340E05D
:101EF00050E0E12CF12C109709F44AC0A815B9055F
:101F0000D1F56D907C901197630182E0C80ED11CD1
:101F1000CA14DB0480F1A3014A195B096A0182E05B
:101F2000C80ED11C1296BC9012971396AC91B5E0D6
:101F3000CB16D10440F0B282A38351834083D901F0
:101F40006D937C930AC00E5F1F4FC301800F911FDA
:101F5000F90191838083EB2DFA2FE114F10431F024
:101F6000D7011396FC93EE93129744C0F0933A0373
:101F7000E09339033FC08D919C9111974817590701
:101F800008F4AC017D0112960D90BC91A02DB3CF49
:101F9000809137039091380388159905E1F446172D
:101FA0005707C8F48091000190910101009741F416
:101FB0008DB79EB74091040150910501841B950B8C
:101FC000E817F907C8F4F0933803E0933703F901F1
:101FD000718360830FC0CB010E940C0E7C010097BF
:101FE00059F0A801BE010E940810CE010E94A10E66
:101FF000C70104C0CE0102C080E090E0CDB7DEB7DB
:10200000EEE00C94A60C81E090E0F8940C94211082
:10201000FB01DC0102C001900D9241505040D8F705
:102020000895FB01DC018D91019080190110D9F315
:10203000990B0895FB01DC0101900D920020E1F75E
:10204000089510E0C0E8D0E004C0FE010E94060E32
:0C2050002196C138D107C9F7F894FFCFE2
:10205C0000003B038000274705BB78043BBBDA4DEF
:10206C00B6BA4752943BF5AF383C3F82EE3BAC914D
:10207C007CBC276333BD28342EBDFA9DA43C8F87CE
:10208C000C3E6B63823EBBB59B3E6B63823E8F877F
:10209C000C3EFA9DA43C28342EBD276333BDAC9175
:1020AC007CBC3F82EE3BF5AF383C4752943BDA4D5B
:1020BC00B6BA78043BBB274705BB0000000076018D
:1020CC00F2003F011D013101BD010D0A006E616E70
:1020DC0000696E66006F7666006765740045727203
:1020EC006F722C207661726961626C6520646F6519
:1020FC00736E27742065786973740073657400457A
:10210C0072726F722C20636F6D6D616E6420646FE0
:10211C0065736E277420657869737400203D200008
:10212C002073657420746F20004B70004B69004B5A
:02213C0064003D
:00000001FF
